:03000000020030CB
:03000B000201737C
:100030007581EF75560F7557A0758902758A06751B
:100040008C06D28CD2A9785079001200B220A41963
:1000500030A4FDE8B4500906E6B418027600014A5F
:1000600006E6B43CF97600014A1200B220A5193028
:10007000A5FDE8B4500916E6B4FF0276170169162B
:10008000E6B4FFF9763B017D1200B220A60C30A643
:10009000FD08E8B45302785001881200B220A7AAE4
:1000A00030A7FD09E9B402067900C2AF809CD2AF47
:1000B0008098E55275F00A84F578E5F0F577E5511A
:1000C00075F00A84F57AE5F0F579E55075F00A8463
:1000D000F57CE5F0F57BE57775A0F09001AB93F545
:1000E00080D2A0C2A1D2A21201B5D2A0D2A1D2A226
:1000F000E57875A0F09001AB93F580C2A0C2A1D2C3
:10010000A21201B5D2A0D2A1D2A2E57975A0F09039
:1001100001AB93F580D2A0D2A1C2A21201B5D2A0A8
:10012000D2A1D2A2E57A75A0F09001AB93F580C27E
:10013000A0D2A1C2A21201B5D2A0D2A1D2A2E57BC7
:1001400075A0F09001AB93F580D2A0C2A1C2A2121B
:1001500001B5D2A0D2A1D2A2E57C75A0F09001ABEE
:1001600093F580C2A0C2A1C2A21201B5D2A0D2A1B1
:02017000D2A219
:1001720022C0D0C0E075D008D55729D5562675566D
:100182000F7557A07852E62401F6B43C1776001892
:10019200E62401F6B43C0D760018E62401D4F6B448
:1001A20018027600D0E0D0D0323F065B4F666D7DFC
:0C01B200077F6F7F047E28DEFEDFFC224A
:00000001FF
